{
  "contractName": "BettingGame",
  "abi": [
    {
      "inputs": [],
      "stateMutability": "nonpayable",
      "type": "constructor"
    },
    {
      "anonymous": false,
      "inputs": [
        {
          "indexed": true,
          "internalType": "address",
          "name": "sender",
          "type": "address"
        },
        {
          "indexed": false,
          "internalType": "uint256",
          "name": "amount",
          "type": "uint256"
        }
      ],
      "name": "Received",
      "type": "event"
    },
    {
      "anonymous": false,
      "inputs": [
        {
          "indexed": false,
          "internalType": "uint256",
          "name": "id",
          "type": "uint256"
        },
        {
          "indexed": false,
          "internalType": "uint256",
          "name": "bet",
          "type": "uint256"
        },
        {
          "indexed": false,
          "internalType": "uint256",
          "name": "randomSeed",
          "type": "uint256"
        },
        {
          "indexed": false,
          "internalType": "uint256",
          "name": "amount",
          "type": "uint256"
        },
        {
          "indexed": false,
          "internalType": "address",
          "name": "player",
          "type": "address"
        },
        {
          "indexed": false,
          "internalType": "uint256",
          "name": "winAmount",
          "type": "uint256"
        },
        {
          "indexed": false,
          "internalType": "uint256",
          "name": "randomResult",
          "type": "uint256"
        },
        {
          "indexed": false,
          "internalType": "uint256",
          "name": "time",
          "type": "uint256"
        }
      ],
      "name": "Result",
      "type": "event"
    },
    {
      "anonymous": false,
      "inputs": [
        {
          "indexed": false,
          "internalType": "address",
          "name": "admin",
          "type": "address"
        },
        {
          "indexed": false,
          "internalType": "uint256",
          "name": "amount",
          "type": "uint256"
        }
      ],
      "name": "Withdraw",
      "type": "event"
    },
    {
      "inputs": [],
      "name": "admin",
      "outputs": [
        {
          "internalType": "address payable",
          "name": "",
          "type": "address"
        }
      ],
      "stateMutability": "view",
      "type": "function"
    },
    {
      "inputs": [],
      "name": "gameId",
      "outputs": [
        {
          "internalType": "uint256",
          "name": "",
          "type": "uint256"
        }
      ],
      "stateMutability": "view",
      "type": "function"
    },
    {
      "inputs": [
        {
          "internalType": "uint256",
          "name": "",
          "type": "uint256"
        }
      ],
      "name": "games",
      "outputs": [
        {
          "internalType": "uint256",
          "name": "id",
          "type": "uint256"
        },
        {
          "internalType": "uint256",
          "name": "bet",
          "type": "uint256"
        },
        {
          "internalType": "uint256",
          "name": "seed",
          "type": "uint256"
        },
        {
          "internalType": "uint256",
          "name": "amount",
          "type": "uint256"
        },
        {
          "internalType": "address payable",
          "name": "player",
          "type": "address"
        }
      ],
      "stateMutability": "view",
      "type": "function"
    },
    {
      "inputs": [],
      "name": "lastGameId",
      "outputs": [
        {
          "internalType": "uint256",
          "name": "",
          "type": "uint256"
        }
      ],
      "stateMutability": "view",
      "type": "function"
    },
    {
      "inputs": [],
      "name": "randomResult",
      "outputs": [
        {
          "internalType": "uint256",
          "name": "",
          "type": "uint256"
        }
      ],
      "stateMutability": "view",
      "type": "function"
    },
    {
      "inputs": [
        {
          "internalType": "bytes32",
          "name": "requestId",
          "type": "bytes32"
        },
        {
          "internalType": "uint256",
          "name": "randomness",
          "type": "uint256"
        }
      ],
      "name": "rawFulfillRandomness",
      "outputs": [],
      "stateMutability": "nonpayable",
      "type": "function"
    },
    {
      "stateMutability": "payable",
      "type": "receive"
    },
    {
      "inputs": [],
      "name": "ethInUsd",
      "outputs": [
        {
          "internalType": "int256",
          "name": "",
          "type": "int256"
        }
      ],
      "stateMutability": "view",
      "type": "function"
    },
    {
      "inputs": [],
      "name": "weiInUsd",
      "outputs": [
        {
          "internalType": "uint256",
          "name": "",
          "type": "uint256"
        }
      ],
      "stateMutability": "view",
      "type": "function"
    },
    {
      "inputs": [
        {
          "internalType": "uint256",
          "name": "bet",
          "type": "uint256"
        },
        {
          "internalType": "uint256",
          "name": "seed",
          "type": "uint256"
        }
      ],
      "name": "game",
      "outputs": [
        {
          "internalType": "bool",
          "name": "",
          "type": "bool"
        }
      ],
      "stateMutability": "payable",
      "type": "function"
    },
    {
      "inputs": [
        {
          "internalType": "uint256",
          "name": "random",
          "type": "uint256"
        }
      ],
      "name": "verdict",
      "outputs": [],
      "stateMutability": "payable",
      "type": "function"
    },
    {
      "inputs": [
        {
          "internalType": "uint256",
          "name": "amount",
          "type": "uint256"
        }
      ],
      "name": "withdrawLink",
      "outputs": [],
      "stateMutability": "nonpayable",
      "type": "function"
    },
    {
      "inputs": [
        {
          "internalType": "uint256",
          "name": "amount",
          "type": "uint256"
        }
      ],
      "name": "withdrawEther",
      "outputs": [],
      "stateMutability": "payable",
      "type": "function"
    }
  ],
  "bytecode": "0x60c060405234801561001057600080fd5b5073dd3782915140c8f3b190b5d67eac6dc5760c46e973a36085f69e2889c224210f603d836748e7dc00888173ffffffffffffffffffffffffffffffffffffffff1660a08173ffffffffffffffffffffffffffffffffffffffff1660601b815250508073ffffffffffffffffffffffffffffffffffffffff1660808173ffffffffffffffffffffffffffffffffffffffff1660601b81525050505067016345785d8a000060028190555033600660006101000a81548173ffffffffffffffffffffffffffffffffffffffff021916908373ffffffffffffffffffffffffffffffffffffffff160217905550738a753747a1fa494ec906ce90e9f37563a8af630e600160006101000a81548173ffffffffffffffffffffffffffffffffffffffff021916908373ffffffffffffffffffffffffffffffffffffffff16021790555060805160601c60a05160601c61158661018860003980610b0e52806111f1525080610760528061103852806111b552506115866000f3fe6080604052600436106100ab5760003560e01c806383f818b41161006457806383f818b41461028657806394985ddd146102d6578063a9d1e30a1461031b578063d3dc1fdf14610346578063d7c81b5514610374578063f851a4401461039f57610100565b8063117a5b9014610105578063238618e71461019c5780633bed33ce146101c75780633ee9d648146101f557806342619f66146102205780637a8042bd1461024b57610100565b36610100573373ffffffffffffffffffffffffffffffffffffffff167f88a5966d370b9919b20f3e2c13ff65706f196a4e32cc2c12bf57088f88525874346040518082815260200191505060405180910390a2005b600080fd5b34801561011157600080fd5b5061013e6004803603602081101561012857600080fd5b81019080803590602001909291905050506103f6565b604051808681526020018581526020018481526020018381526020018273ffffffffffffffffffffffffffffffffffffffff1673ffffffffffffffffffffffffffffffffffffffff1681526020019550505050505060405180910390f35b3480156101a857600080fd5b506101b161044c565b6040518082815260200191505060405180910390f35b6101f3600480360360208110156101dd57600080fd5b810190808035906020019092919050505061047a565b005b34801561020157600080fd5b5061020a61068f565b6040518082815260200191505060405180910390f35b34801561022c57600080fd5b50610235610695565b6040518082815260200191505060405180910390f35b34801561025757600080fd5b506102846004803603602081101561026e57600080fd5b810190808035906020019092919050505061069b565b005b6102bc6004803603604081101561029c57600080fd5b8101908080359060200190929190803590602001909291905050506108b5565b604051808215151515815260200191505060405180910390f35b3480156102e257600080fd5b50610319600480360360408110156102f957600080fd5b810190808035906020019092919080359060200190929190505050610b0c565b005b34801561032757600080fd5b50610330610bdb565b6040518082815260200191505060405180910390f35b6103726004803603602081101561035c57600080fd5b8101908080359060200190929190505050610cc4565b005b34801561038057600080fd5b50610389611005565b6040518082815260200191505060405180910390f35b3480156103ab57600080fd5b506103b461100b565b604051808273ffffffffffffffffffffffffffffffffffffffff1673ffffffffffffffffffffffffffffffffffffffff16815260200191505060405180910390f35b60076020528060005260406000206000915090508060000154908060010154908060020154908060030154908060040160009054906101000a900473ffffffffffffffffffffffffffffffffffffffff16905085565b600080610457610bdb565b90506000816a52b7d2dcc80cd2e40000008161046f57fe5b059050809250505090565b600660009054906101000a900473ffffffffffffffffffffffffffffffffffffffff1673ffffffffffffffffffffffffffffffffffffffff163373ffffffffffffffffffffffffffffffffffffffff161461053d576040517f08c379a00000000000000000000000000000000000000000000000000000000081526004018080602001828103825260178152602001807f63616c6c6572206973206e6f74207468652061646d696e00000000000000000081525060200191505060405180910390fd5b80471015610596576040517f08c379a00000000000000000000000000000000000000000000000000000000081526004018080602001828103825260278152602001806114f86027913960400191505060405180910390fd5b600660009054906101000a900473ffffffffffffffffffffffffffffffffffffffff1673ffffffffffffffffffffffffffffffffffffffff166108fc829081150290604051600060405180830381858888f193505050501580156105fe573d6000803e3d6000fd5b507f884edad9ce6fa2440d8a54cc123490eb96d2768479d49ff9c7366125a9424364600660009054906101000a900473ffffffffffffffffffffffffffffffffffffffff1682604051808373ffffffffffffffffffffffffffffffffffffffff1673ffffffffffffffffffffffffffffffffffffffff1681526020018281526020019250505060405180910390a150565b60055481565b60035481565b600660009054906101000a900473ffffffffffffffffffffffffffffffffffffffff1673ffffffffffffffffffffffffffffffffffffffff163373ffffffffffffffffffffffffffffffffffffffff161461075e576040517f08c379a00000000000000000000000000000000000000000000000000000000081526004018080602001828103825260178152602001807f63616c6c6572206973206e6f74207468652061646d696e00000000000000000081525060200191505060405180910390fd5b7f000000000000000000000000000000000000000000000000000000000000000073ffffffffffffffffffffffffffffffffffffffff1663a9059cbb33836040518363ffffffff1660e01b8152600401808373ffffffffffffffffffffffffffffffffffffffff1673ffffffffffffffffffffffffffffffffffffffff16815260200182815260200192505050602060405180830381600087803b15801561080557600080fd5b505af1158015610819573d6000803e3d6000fd5b505050506040513d602081101561082f57600080fd5b81019080805190602001909291905050506108b2576040517f08c379a00000000000000000000000000000000000000000000000000000000081526004018080602001828103825260198152602001807f4572726f722c20756e61626c6520746f207472616e736665720000000000000081525060200191505060405180910390fd5b50565b6000806108c061044c565b905080341015610938576040517f08c379a000000000000000000000000000000000000000000000000000000000815260040180806020018281038252601e8152602001807f4572726f722c206d73672e76616c7565206d757374206265203e3d202431000081525060200191505060405180910390fd5b60018411156109af576040517f08c379a000000000000000000000000000000000000000000000000000000000815260040180806020018281038252601a8152602001807f4572726f722c20616363657074206f6e6c79203020616e64203100000000000081525060200191505060405180910390fd5b34471015610a25576040517f08c379a00000000000000000000000000000000000000000000000000000000081526004018080602001828103825260208152602001807f4572726f722c20696e737566666963656e74207661756c742062616c616e636581525060200191505060405180910390fd5b6040518060a0016040528060045481526020018581526020018481526020013481526020013373ffffffffffffffffffffffffffffffffffffffff168152506007600060045481526020019081526020016000206000820151816000015560208201518160010155604082015181600201556060820151816003015560808201518160040160006101000a81548173ffffffffffffffffffffffffffffffffffffffff021916908373ffffffffffffffffffffffffffffffffffffffff160217905550905050600160045401600481905550610b0083611031565b50600191505092915050565b7f000000000000000000000000000000000000000000000000000000000000000073ffffffffffffffffffffffffffffffffffffffff163373ffffffffffffffffffffffffffffffffffffffff1614610bcd576040517f08c379a000000000000000000000000000000000000000000000000000000000815260040180806020018281038252601f8152602001807f4f6e6c7920565246436f6f7264696e61746f722063616e2066756c66696c6c0081525060200191505060405180910390fd5b610bd7828261119b565b5050565b600080600080600080600160009054906101000a900473ffffffffffffffffffffffffffffffffffffffff1673ffffffffffffffffffffffffffffffffffffffff1663feaf968c6040518163ffffffff1660e01b815260040160a06040518083038186803b158015610c4c57600080fd5b505afa158015610c60573d6000803e3d6000fd5b505050506040513d60a0811015610c7657600080fd5b81019080805190602001909291908051906020019092919080519060200190929190805190602001909291908051906020019092919050505094509450945094509450839550505050505090565b73dd3782915140c8f3b190b5d67eac6dc5760c46e973ffffffffffffffffffffffffffffffffffffffff163373ffffffffffffffffffffffffffffffffffffffff1614610d79576040517f08c379a00000000000000000000000000000000000000000000000000000000081526004018080602001828103825260208152602001807f6f6e6c7920564652432063616e2063616c6c20746869732066756e6374696f6e81525060200191505060405180910390fd5b600060055490505b600454811015610ff85760008090507f80000000000000000000000000000000000000000000000000000000000000008310158015610dd6575060016007600084815260200190815260200160002060010154145b80610e2257507f800000000000000000000000000000000000000000000000000000000000000083108015610e21575060006007600084815260200190815260200160002060010154145b5b15610ec157600260076000848152602001908152602001600020600301540290506007600083815260200190815260200160002060040160009054906101000a900473ffffffffffffffffffffffffffffffffffffffff1673ffffffffffffffffffffffffffffffffffffffff166108fc829081150290604051600060405180830381858888f19350505050158015610ebf573d6000803e3d6000fd5b505b7f42454dd863e57d7fc7c2c8c6a3d1385748e0c2c5224b37d27cad5fb088ddf47b60076000848152602001908152602001600020600001546007600085815260200190815260200160002060010154600760008681526020019081526020016000206002015460076000878152602001908152602001600020600301546007600088815260200190815260200160002060040160009054906101000a900473ffffffffffffffffffffffffffffffffffffffff16868942604051808981526020018881526020018781526020018681526020018573ffffffffffffffffffffffffffffffffffffffff1673ffffffffffffffffffffffffffffffffffffffff1681526020018481526020018381526020018281526020019850505050505050505060405180910390a1508080600101915050610d81565b5060045460058190555050565b60045481565b600660009054906101000a900473ffffffffffffffffffffffffffffffffffffffff1681565b60006002547f000000000000000000000000000000000000000000000000000000000000000073ffffffffffffffffffffffffffffffffffffffff166370a08231306040518263ffffffff1660e01b8152600401808273ffffffffffffffffffffffffffffffffffffffff1673ffffffffffffffffffffffffffffffffffffffff16815260200191505060206040518083038186803b1580156110d357600080fd5b505afa1580156110e7573d6000803e3d6000fd5b505050506040513d60208110156110fd57600080fd5b810190808051906020019092919050505011611164576040517f08c379a000000000000000000000000000000000000000000000000000000000815260040180806020018281038252603281526020018061151f6032913960400191505060405180910390fd5b6111947f2ed0feb3e7fd2022120aa84fab1945545a9f2ffc9076fd6156fa96eaff4c131160001b600254846111b1565b9050919050565b806003819055506111ad600354610cc4565b5050565b60007f000000000000000000000000000000000000000000000000000000000000000073ffffffffffffffffffffffffffffffffffffffff16634000aea07f000000000000000000000000000000000000000000000000000000000000000085878660405160200180838152602001828152602001925050506040516020818303038152906040526040518463ffffffff1660e01b8152600401808473ffffffffffffffffffffffffffffffffffffffff1673ffffffffffffffffffffffffffffffffffffffff16815260200183815260200180602001828103825283818151815260200191508051906020019080838360005b838110156112c05780820151818401526020810190506112a5565b50505050905090810190601f1680156112ed5780820380516001836020036101000a031916815260200191505b50945050505050602060405180830381600087803b15801561130e57600080fd5b505af1158015611322573d6000803e3d6000fd5b505050506040513d602081101561133857600080fd5b810190808051906020019092919050505050600061136a8584306000808a8152602001908152602001600020546113bc565b905061139260016000808881526020019081526020016000205461143690919063ffffffff16565b600080878152602001908152602001600020819055506113b285826114be565b9150509392505050565b600084848484604051602001808581526020018481526020018373ffffffffffffffffffffffffffffffffffffffff1673ffffffffffffffffffffffffffffffffffffffff1681526020018281526020019450505050506040516020818303038152906040528051906020012060001c9050949350505050565b6000808284019050838110156114b4576040517f08c379a000000000000000000000000000000000000000000000000000000000815260040180806020018281038252601b8152602001807f536166654d6174683a206164646974696f6e206f766572666c6f77000000000081525060200191505060405180910390fd5b8091505092915050565b6000828260405160200180838152602001828152602001925050506040516020818303038152906040528051906020012090509291505056fe4572726f722c20636f6e74726163742068617320696e737566666963656e742062616c616e63654572726f722c206e6f7420656e6f756768204c494e4b202d2066696c6c20636f6e7472616374207769746820666175636574a26469706673582212208bbe1bc5503d936dd526e42e4bd5a83bcf6cac9121dca550b2823c3d009e349364736f6c63430006060033",
  "immutableReferences": {
    "531": [
      {
        "length": 32,
        "start": 1888
      },
      {
        "length": 32,
        "start": 4152
      },
      {
        "length": 32,
        "start": 4533
      }
    ],
    "533": [
      {
        "length": 32,
        "start": 2830
      },
      {
        "length": 32,
        "start": 4593
      }
    ]
  },
  "source": "// \n/** Contract created based on: https://docs.chain.link/docs/get-a-random-number\n *  Contract created only for educational purposes, by: github.com/dappuniversity\n *  You will need testnet ETH and LINK.\n *     - Rinkeby ETH faucet: https://faucet.rinkeby.io/\n *     - Rinkeby LINK faucet: https://rinkeby.chain.link/\n */\n\n/** !UPDATE\n * min. bet >= $1 in Ethereum\n * \n * ETH/USD price will be received from Chainlink Oracles prices feed aggregator.\n * more: https://docs.chain.link/docs/using-chainlink-reference-contracts.\n */\npragma solidity 0.6.6;\n\nimport \"@chainlink/contracts/src/v0.6/VRFConsumerBase.sol\";\nimport \"@chainlink/contracts/src/v0.6/interfaces/AggregatorV3Interface.sol\";\n /* !UPDATE, import aggregator contract */\n\ncontract BettingGame is VRFConsumerBase {\n    \n  /** !UPDATE\n   * \n   * assign an aggregator contract to the variable.\n   */\n  AggregatorV3Interface internal ethUsd; \n    \n  uint256 internal fee;\n  uint256 public randomResult;\n  \n  //Network: Rinkeby\n  address constant VFRC_address = 0xdD3782915140c8f3b190B5D67eAc6dc5760C46E9; // VRF Coordinator\n  address constant LINK_address = 0xa36085F69e2889c224210F603D836748e7dC0088; // LINK token\n  \n  //declaring 50% chance, (0.5*(uint256+1))\n  uint256 constant half = 57896044618658097711785492504343953926634992332820282019728792003956564819968;\n  \n  //keyHash - one of the component from which will be generated final random value by Chainlink VFRC.\n  bytes32 constant internal keyHash = 0x2ed0feb3e7fd2022120aa84fab1945545a9f2ffc9076fd6156fa96eaff4c1311;\n  \n  uint256 public gameId;\n  uint256 public lastGameId;\n  address payable public admin;\n  mapping(uint256 => Game) public games;\n\n  struct Game{\n    uint256 id;\n    uint256 bet;\n    uint256 seed;\n    uint256 amount;\n    address payable player;\n  }\n\n  modifier onlyAdmin() {\n    require(msg.sender == admin, \"caller is not the admin\");\n    _;\n  }\n\n  modifier onlyVFRC() {\n    require(msg.sender == VFRC_address, \"only VFRC can call this function\");\n    _;\n  }\n  \n  event Withdraw(address admin, uint256 amount);\n  event Received(address indexed sender, uint256 amount);\n  event Result(uint256 id, uint256 bet, uint256 randomSeed, uint256 amount, address player, uint256 winAmount, uint256 randomResult, uint256 time);\n  \n  /**\n   * Constructor inherits VRFConsumerBase.\n   */\n  constructor() VRFConsumerBase(VFRC_address, LINK_address) public {\n    fee = 0.1 * 10 ** 18; // 0.1 LINK\n    admin = msg.sender;\n    \n    /** !UPDATE\n     * \n     * assign ETH/USD Rinkeby contract address to the aggregator variable.\n     * more: https://docs.chain.link/docs/ethereum-addresses\n     */\n     \n    ethUsd = AggregatorV3Interface(0x8A753747A1Fa494EC906cE90E9f37563A8AF630e);\n  }\n  \n  /* Allows this contract to receive payments */\n  receive() external payable {\n    emit Received(msg.sender, msg.value);\n  }\n  \n\n  /** !UPDATE\n   * \n   * Returns latest ETH/USD price from Chainlink oracles.\n   */\n  function ethInUsd() public view returns (int) {\n    (uint80 roundId, int price, uint startedAt, uint timeStamp, uint80 answeredInRound) = ethUsd.latestRoundData();\n    \n    return price;\n  }\n\n  /** !UPDATE\n   * \n   * ethUsd - latest price from Chainlink oracles (ETH in USD * 10**8).\n   * weiUsd - USD in Wei, received by dividing:\n   *          ETH in Wei (converted to compatibility with etUsd (10**18 * 10**8)),\n   *          by ethUsd.\n   */\n  function weiInUsd() public view returns (uint) {\n    int ethUsd = ethInUsd();\n    int weiUsd = 10**26/ethUsd;\n    \n    return uint(weiUsd);\n  }\n  \n  /**\n   * Taking bets function.\n   * By winning, user 2x his betAmount.\n   * Chances to win and lose are the same.\n   */\n  function game(uint256 bet, uint256 seed) public payable returns (bool) {\n\n    /** !UPDATE\n     * \n     * Checking if msg.value is higher or equal than $1.\n    */\n    uint weiUsd = weiInUsd();\n    require(msg.value>=weiUsd, \"Error, msg.value must be >= $1\");\n      \n    //bet=0 is low, refers to 1-3  dice values\n    //bet=1 is high, refers to 4-6 dice values\n    require(bet<=1, \"Error, accept only 0 and 1\");\n\n    //vault balance must be at least equal to msg.value\n    require(address(this).balance>=msg.value, \"Error, insufficent vault balance\");\n    \n    //each bet has unique id\n    games[gameId] = Game(gameId, bet, seed, msg.value, msg.sender);\n    \n    //increase gameId for the next bet\n    gameId = gameId+1;\n\n    //seed is auto-generated by DApp\n    getRandomNumber(seed);\n    \n    return true;\n  }\n  \n  /** \n   * Request for randomness.\n   */\n  function getRandomNumber(uint256 userProvidedSeed) internal returns (bytes32 requestId) {\n    require(LINK.balanceOf(address(this)) > fee, \"Error, not enough LINK - fill contract with faucet\");\n    return requestRandomness(keyHash, fee, userProvidedSeed);\n  }\n\n  /**\n   * Callback function used by VRF Coordinator.\n   */\n  function fulfillRandomness(bytes32 requestId, uint256 randomness) internal override {\n    randomResult = randomness;\n\n    //send final random value to the verdict();\n    verdict(randomResult);\n  }\n  \n  /**\n   * Send rewards to the winners.\n   */\n  function verdict(uint256 random) public payable onlyVFRC {\n    //check bets from latest betting round, one by one\n    for(uint256 i=lastGameId; i<gameId; i++){\n      //reset winAmount for current user\n      uint256 winAmount = 0;\n      \n      //if user wins, then receives 2x of their betting amount\n      if((random>=half && games[i].bet==1) || (random<half && games[i].bet==0)){\n        winAmount = games[i].amount*2;\n        games[i].player.transfer(winAmount);\n      }\n      emit Result(games[i].id, games[i].bet, games[i].seed, games[i].amount, games[i].player, winAmount, random, block.timestamp);\n    }\n    //save current gameId to lastGameId for the next betting round\n    lastGameId = gameId;\n  }\n  \n  /**\n   * Withdraw LINK from this contract (admin option).\n   */\n  function withdrawLink(uint256 amount) external onlyAdmin {\n    require(LINK.transfer(msg.sender, amount), \"Error, unable to transfer\");\n  }\n  \n  /**\n   * Withdraw Ether from this contract (admin option).\n   */\n  function withdrawEther(uint256 amount) external payable onlyAdmin {\n    require(address(this).balance>=amount, \"Error, contract has insufficent balance\");\n    admin.transfer(amount);\n    \n    emit Withdraw(admin, amount);\n  }\n}",
  "sourcePath": "/home/ishita/Documents/Chain-O-Plant_chainlink_hackathon/chainlink/ChainLink/contracts/BettingGame.sol",
  "compiler": {
    "name": "solc",
    "version": "0.6.6+commit.6c089d02.Emscripten.clang"
  },
  "schemaVersion": "3.3.4",
  "updatedAt": "2021-04-10T05:44:13.263Z",
  "devdoc": {
    "methods": {}
  },
  "userdoc": {
    "methods": {
      "constructor": "Constructor inherits VRFConsumerBase.",
      "ethInUsd()": {
        "notice": "!UPDATE    * Returns latest ETH/USD price from Chainlink oracles."
      },
      "game(uint256,uint256)": {
        "notice": "Taking bets function. By winning, user 2x his betAmount. Chances to win and lose are the same."
      },
      "verdict(uint256)": {
        "notice": "Send rewards to the winners."
      },
      "weiInUsd()": {
        "notice": "!UPDATE    * ethUsd - latest price from Chainlink oracles (ETH in USD * 10**8). weiUsd - USD in Wei, received by dividing:         ETH in Wei (converted to compatibility with etUsd (10**18 * 10**8)),         by ethUsd."
      },
      "withdrawEther(uint256)": {
        "notice": "Withdraw Ether from this contract (admin option)."
      },
      "withdrawLink(uint256)": {
        "notice": "Withdraw LINK from this contract (admin option)."
      }
    }
  }
}